:020000040800F2
:1000000048050020DD010008AF200008ED1A0008B7
:10001000AD2000089F0900086323000800000000CD
:10002000000000000000000000000000B3200008F5
:10003000A109000800000000B1200008ED20000820
:10004000F7010008F7010008F7010008F7010008B0
:10005000F7010008F7010008F7010008F7010008A0
:10006000F7010008F7010008F7010008F701000890
:10007000F7010008F7010008F7010008F701000880
:10008000F7010008F7010008F7010008F701000870
:10009000F7010008F7010008F7010008F701000860
:1000A000F7010008F7010008F7010008F701000850
:1000B000F7010008F7010008F7010008F701000840
:1000C000F7010008F7010008F7010008F701000830
:1000D000F7010008F7010008F7010008F701000820
:1000E000F7010008F7010008F7010008F701000810
:1000F000F7010008F7010008F7010008F701000800
:10010000F7010008F7010008F7010008F7010008EF
:10011000F7010008F7010008F7010008F7010008DF
:10012000F7010008F7010008F7010008F7010008CF
:10013000F70100080000000000000000F7010008BF
:10014000F7010008F7010008F7010008F7010008AF
:10015000F7010008F7010008F7010008F70100089F
:10016000F7010008F7010008F7010008F70100088F
:10017000F7010008F7010008F7010008000000007F
:1001800000000000F701000800000000000000006F
:10019000F70100080000000000000000F70100085F
:1001A000000000000000000000000000F70100084F
:1001B000F7010008F7010008F7010008F70100083F
:1001C000F7010008DFF810D000F086FB0048004778
:1001D00041450008AFF300804805002006488047ED
:1001E00006480047FEE7FEE7FEE7FEE7FEE7FEE71C
:1001F000FEE7FEE7FEE7FEE785210008C5010008EF
:100200002DE9F05F0546002092469B46884606464B
:10021000814640241BE0284641464746224600F0DE
:1002200006FA53465A46C01A914110D31146184651
:10023000224600F0EDF92D1A67EB01084F462246E1
:100240000120002100F0E4F917EB00094E41201EC7
:10025000A4F10104DFDC484631462A464346BDE8A6
:10026000F09F2DE9F0410024061B254671F10006A0
:1002700005DA01240027D0EB070067EB0101161E09
:1002800073F1000605DA0027D2EB0702012567EBC0
:100290000303FFF7B5FF86460E4617469C46AC4261
:1002A00004D00025D0EB050E65EB010624B100203B
:1002B000D2EB000760EB030C704631463A466346CA
:1002C000BDE8F081D2B201E000F8012B491EFBD25B
:1002D00070470022F6E710B513460A460446194651
:1002E000FFF7F0FF204610BD30B50446002003465E
:1002F00000E05B1C934203D2E05CCD5C401BF8D075
:1003000030BD2DE9FE4F804681EA0300C00F0C4648
:10031000009021F0004123F00045B8EB0200A94114
:1003200005D24046214690461C460B46024623F025
:100330000040104347D0270DC7F30A00C3F30A510A
:100340000290401A019040286BDAC3F3130040F486
:10035000801B0098924620B10023D2EB030A63EB86
:100360000B0B01985946C0F14002504600F050F97D
:1003700006460D4650465946019A00F068F910EBC2
:1003800008006141002487EA115284EAE7731A43A6
:1003900040D0009A62B3019A012A4FEA075215DC55
:1003A000001B61EB02014FF0004202EA0752CDE967
:1003B0000042001C41F5801132462B4600F09FF9A7
:1003C00003B0BDE8F08F40462146F9E7001B61EB22
:1003D0000201001C41F5801300185B412018A2F5B2
:1003E000001747EB030140EAD570B6196D4111E0E3
:1003F0006D084FEA360645EAC0754FEA0752001B02
:1004000061EB0201001C41F5801149084FEA300000
:100410000019514132462B4603B0BDE8F04F00F0C1
:100420005FB90098012240000023D0EB020263EB89
:10043000E073009821464FEAE074B8EB000061EBEE
:100440000401E9E783F000435BE781F0004158E7EE
:100450002DE9FE4F81EA030404F0004421F000413D
:1004600000944FF0000B23F0004350EA01045ED0EB
:1004700052EA03045BD0C3F30A54C1F30A552C4477
:10048000A4F2F3340194A0FB0254C1F3130141F42C
:100490008011C3F3130343F4801301FB024400FBF8
:1004A000034E840A970A44EA815447EA8357A4FB1F
:1004B000076802958D0A05FB07854FEA932C04FB1C
:1004C0000C542705029D4FEA065847EA1637B5EB4C
:1004D00008056EEB070C870E920E47EA811742EA79
:1004E0008312A7FB0201B6EB0B0164EB00042B0D9A
:1004F00043EA0C335E1844EB1C50DA465146E7FBE6
:100500000201C5F313044FEA0B3343EA14534FEAD5
:100510000432019C43EA0603A4F10C040294009CFB
:10052000CDE900B400F0EBF803B0BDE8F08F002097
:100530000146F9E70EB5C10F80EAE0700844CA072A
:10054000002140F233438DE80E000A460B4600F0CE
:10055000D6F803B000BD00F0004230F000400AD0F1
:10056000C10D01F56071C0F3160042EA0151C208E5
:1005700040071143704700200146704730B5041E04
:1005800071F1000404DB4FF00044404264EB0101D0
:10059000141E73F1000405DB1C464FF00043524269
:1005A00063EB0403994208BF904230BD01F0004361
:1005B00030B421F0004150EA010206D00A0DA2F544
:1005C0006072C1F31301002A02DC30BC00207047C6
:1005D000440F44EAC104C100E01830BC00EBC25033
:1005E00000F047B830B50B46014600202022012418
:1005F00009E021FA02F59D4205D303FA02F5491BF1
:1006000004FA02F52844151EA2F10102F1DC30BD06
:10061000202A04DB203A00FA02F1002070479140C2
:10062000C2F1200320FA03F3194390407047202AB7
:1006300004DB203A21FA02F00021704721FA02F38C
:10064000D040C2F120029140084319467047202A49
:1006500006DBCB17203A41FA02F043EAE07306E0EA
:1006600041FA02F3D040C2F12002914008431946FA
:1006700070470029A8BF7047401C490008BF20F000
:100680000100704710B4B0FA80FC00FA0CF050EA98
:10069000010404BF10BC704749B1CCF1200421FA19
:1006A00004F411FA0CF118BF012121430843A3EB14
:1006B0000C01CB1D4FEA00614FEA102042BF002021
:1006C00010BC704700EBC35010440029A4BF10BCFD
:1006D0007047401C490008BF20F0010010BC704763
:1006E00010B5141E73F1000408DA401C41F100013A
:1006F00092185B411A4301D120F0010010BD2DE991
:10070000F04D92469B4611B1B1FA81F202E0B0FA87
:1007100080F220329046FFF77BFF04460F4640EA06
:100720000A0041EA0B0153465A46084313D01146CA
:1007300053EA010019D0C8F140025046FFF777FF95
:1007400005460E46504659464246FFF761FF0843AC
:1007500005D0012004E020463946BDE8F08D002098
:10076000054346EAE0762C4337430A986305E40ADA
:10077000A0EB08000022FD0A44EA47540A3002D5E3
:1007800000200146E9E7010510196941DDE9084546
:1007900000196941BDE8F04DA2E72DE9F04D81EA6D
:1007A000030404F0004B21F0004514464FF0000A0A
:1007B00023F0004150EA050220D054EA01021DD086
:1007C000C5F30A570246C5F31303C1F31300C1F37F
:1007D0000A5640F4801543F48013A7EB0608101B5B
:1007E000D64608F2FD3873EB050002D308F1010884
:1007F00001E092185B41B8F1000F03DA00200146D6
:10080000BDE8F08D00204FF48011064684460EE0CE
:10081000171B73EB050705D3121B63EB0503064398
:100820004CEA010C49084FEA300092185B4150EA4B
:100830000107EDD152EA030012D082EA040083EAF4
:100840000501084305D0101BAB4106D2012200234D
:1008500006E000224FF0004302E06FF00102531067
:100860001AEB06004CEB085110EB0A0041EB0B01B0
:10087000BDE8F04DFFF734BFC1F30A52C1F31301D5
:1008800040F2FF3341F480119A4202DA002001461F
:10089000704740F233439A42A2F2334202DC5242A2
:1008A000FFF7C5BEFFF7B4BE30B5041E71F10004FA
:1008B00004DB4FF00044404264EB0101141E73F16D
:1008C000000405DB1C464FF00043524263EB040377
:1008D0008B4208BF824230BD064C074D06E0E068FF
:1008E00040F0010394E8070098471034AC42F6D377
:1008F000FFF76CFCF8640008186500082DE9F04D5E
:1009000000231A461B1A8A4103DB00200146BDE87A
:10091000F08DC1F30A52C1F3130141F480154FF079
:10092000000BD10702D100186D41521E002704466A
:1009300040F2FF11384601EB620A3E46804602460D
:1009400000204FF48011FFF772FEC2197141BB18ED
:1009500046EB0100B4EB030C75EB000C04D3E41A76
:1009600065EB000517460E46241908F101006D419C
:1009700080463428E3DDF91946EB0600091BA8413F
:1009800003D24FF0FF32134601E0002213461BEB67
:10099000070046EB0A51BDE8F04DFFF7A1BEFEE7A8
:1009A000704772B6FEE7000070B5044600F0A8F983
:1009B0000546601C02D004480078044400F0A0F909
:1009C000401BA042FAD370BD700000202DE9F04F0B
:1009D0000022DFF82CB101264FF00F0906FA02F4CD
:1009E00001EA0403A3427DD122F003075F44D7F854
:1009F000088895074FEA157C09FA0CFA0AEA0805F7
:100A0000DFF80081404502D14FF000082BE0DFF80D
:100A1000F880404502D14FF0010824E0DFF8EC8077
:100A2000404502D14FF002081DE0DFF8E480404568
:100A300002D14FF0030816E0DFF8D880404502D11C
:100A40004FF004080FE0DFF8D080404502D14FF0AE
:100A5000050808E0DFF8C480404502D14FF00608E1
:100A600001E04FF0070808FA0CF8A84522D12C4DF8
:100A7000D5F800C02CEA030CC5F800C02D1DD5F830
:100A800000C02CEA030CC5F800C0254D0C35D5F884
:100A900000C02CEA030CC5F800C02D1FD5F800C01B
:100AA0002CEA030CC5F800C0D7F8085825EA0A0557
:100AB000C7F80858056857000323BB409D430560ED
:100AC000D50800EB8507D7F820C055074FEAD56851
:100AD00009FA08F52CEA050CC7F820C0C5689D4343
:100AE000C56000E005E04568A543456084689C4317
:100AF0008460521C102AFFF471AFBDE8F08F000033
:100B000000300140000002400004024000080240A2
:100B1000000C024000100240001402400018024085
:100B2000003C01402DE9F84FDFF8ACA10022012480
:100B300003254FF00F090AF1040BAAF1040E00BFC0
:100B40000B6804FA02F63340B3426ED10F7907F016
:100B50000307012F01D0022F16D187684FEA420800
:100B600005FA08FC27EA0C07D1F80CC00CFA08FCBF
:100B70004CEA070CC0F808C04768B7430E79C6F3C3
:100B8000001696403E4346600E79F643B6070AD0FB
:100B9000C6684FEA420C05FA0CF7BE438F6807FAA5
:100BA0000CF73743C7600E7906F00306022E10D10A
:100BB000D60800EB8608D8F8206057074FEAD76CB4
:100BC00009FA0CF7BE430F6907FA0CF73743C8F868
:100BD000207006684FEA420C05FA0CF7BE430F7905
:100BE00007F0030707FA0CF7374307604E6816F45F
:100BF000403F6BD0394E376847F4804737603668DE
:100C000022F0030706F480460096354E07EB060CEB
:100C1000DCF8086897074FEA177809FA08F7BE4327
:100C2000304FB84202D100271FE04FE02E4FB842AC
:100C300001D1012719E02D4FB84201D1022714E05C
:100C40002B4FB84201D103270FE02A4FB84201D100
:100C500004270AE0284FB84201D1052705E0274FB5
:100C6000B84201D1062700E0072707FA08F7374303
:100C7000CCF80878DAF800605746D1F804C09E43F3
:100C80005FEACC2C00D51E433E60DBF800605F4677
:100C9000D1F804C09E435FEA8C2C00D51E433E6011
:100CA000DEF800607746D1F804C09E435FEA8C3CD2
:100CB00000D51E433E60084F083F3E68D1F804C08F
:100CC0009E435FEACC3C00D51E433E60521C102A76
:100CD000FFF436AFBDE8F88F083C014044380240CD
:100CE00000300140000002400004024000080240C1
:100CF000000C0240001002400014024000180240A4
:100D000001488068704700007000002010B50400A2
:100D100013D0242084F83D002068016821F00101EF
:100D20000160204600F06AFA0020206484F83D004B
:100D300044F8300FA073207310BD012010BD0000D7
:100D400070B5040025D094F83D00002520B984F842
:100D50003C50204600F06EFA242084F83D002068C4
:100D6000016821F0010101602068016841F400413F
:100D700001602068016821F40041016000F0B4FBCB
:100D80004D4A6168914201D84C4900E04C49884283
:100D900001D2012070BD4B492368B0FBF1F15E68C0
:100DA00026F03F060E435E606368934206D94FF417
:100DB000967359434FF47A73B1FBF3F12368491CDE
:100DC0001E6A26F03F06314319626168914210D8CD
:100DD0004900401EB0FBF1F2521CC2F30B02042A80
:100DE00001D2042022E0B0FBF1F0401CC0F30B0064
:100DF0001CE0A268F2B301EBC10303EB0116431E32
:100E0000B3FBF6F35B1C43F480431B0549D092B35C
:100E100001EBC10202EB0111401EB0FBF1F0401CDE
:100E2000C0F30B0040F4804040F400402168CA69E0
:100E30004CF6FF739A431043C861D4E9071001438D
:100E40002068026822F0C00211430160D4E9030166
:100E500001432068826848F2FF339A43114381605E
:100E6000D4E9050108432168CA6822F0FF02104353
:100E7000C86001E00EE016E02068016841F0010161
:100E800001602564202084F83D00256384F83E50ED
:100E9000002070BD01EB4106431EB3FBF6F35B1C63
:100EA000B3E70120C2E701EB4101401EB0FBF1F0C6
:100EB000401CC0F30B00B7E7A086010080841E0031
:100EC00000093D0040420F002DE9FF4F83B09A46D4
:100ED000DDE9118793460446DDF84090FFF710FFE7
:100EE000054694F83D00202870D119230122744949
:100EF0002046009500F010FF0028F5D194F83C0042
:100F0000012863D0012084F83C0020680168C907EB
:100F100003D1016841F0010101602068016821F4FA
:100F200000610160222084F83D00402084F83E00EA
:100F300000262664C4F82490A4F82A80608D2085B9
:100F40006048E062CDE9007553465A462046049950
:100F500000F0E4FD002879D1208DD0B1012821D006
:100F60000228206824D0416980690090208D0328E0
:100F700066D801282BD0544902283B464FF0000286
:100F8000009557D08846204600F0C6FE00285DD167
:100F90003AE02068416981690091016841F400717B
:100FA00001607DE02068016821F480610160F0E764
:100FB000016821F4806101602068016841F40061EA
:100FC0000160206841698069009069E075E02A4607
:100FD0003946204600F046FF88BB54E0206801688F
:100FE00041F40071016020680069616A0870606AFC
:100FF000401C6062218D491E2185618D491E6185DD
:1010000021680969017042E02068016821F480616B
:10101000016020680069616A0870606A401C606253
:10102000208D401E2085608D401E60853B4600223D
:1010300041460095204600F06FFE00B9CEE705E07E
:101040002A463946204600F00DFF18B1012007B0AE
:10105000BDE8F08F20680069616A0870606A401C12
:101060006062208D401E81B22185608D401E6085AA
:1010700020684269D243520712D4032903D1016880
:1010800021F48061016020680069616A0870606A0B
:10109000401C6062208D401E2085608D401E608552
:1010A000208D00287FF462AF202084F83D0084F872
:1010B0003E6084F83C600020C9E70220C7E70000DA
:1010C000020010000000FFFF040001002DE9FF4FA7
:1010D00083B09A46DDE9119793460446DDF84080D7
:1010E000FFF70EFE054694F83D0020287FD1192316
:1010F000012240492046009500F00EFE002876D1DE
:1011000094F83C00012872D0012084F83C0020684B
:101110000168C90703D1016841F00101016020683D
:10112000016821F400610160212084F83D00402025
:1011300084F83E0000262664C4F82480A4F82A908F
:10114000608D20852C48E062CDE9007553465A46F3
:101150002046049900F060FD70B930E02A46394617
:10116000204600F0B7FE58B1206C042804D1206856
:10117000016841F400710160012007B0BDE8F08F03
:10118000606A216800780861606A401C6062218D95
:10119000491E89B22185628D521E6285226853697B
:1011A000DB435B070BD469B100781061606A401CB7
:1011B0006062208D401E2085608D401E6085208DE0
:1011C0000028CBD12A463946204600F079FD002878
:1011D000CAD154F83D0B016841F400710160202030
:1011E00004F81E09E67766770020C6E7FFE70220CD
:1011F000C3E70000020010000000FFFF10B5006808
:10120000094988420FD10948016821F400110160A1
:10121000074C40212046FFF7D9FB2046BDE810408F
:101220008021FFF7D3BB10BD00540040403802407E
:101230000004024010B586B0044614216846FFF74A
:1012400048F813492068884220D1124800210268DA
:1012500042F002020260006800F002000590C02027
:1012600000901220CDE90101032003900420049096
:1012700069460948FFF756FC06481030016841F4FA
:1012800000110160006800F40010059006B010BD68
:101290000054004030380240000402400248816897
:1012A0000278114481607047700000200B4810B52F
:1012B000016841F400710160016841F480610160DE
:1012C000016841F480710160032000F061F80F2093
:1012D00000F006F800F024F8002010BD003C0240A9
:1012E00070B50D4D04464FF47A712878B1FBF0F0DB
:1012F0000A490968B1FBF0F000F02EFB48B9102C48
:1013000007D200222146501E00F022F800206C6017
:1013100070BD012070BD0000700000207C00002026
:101320000A4808B5016841F480410160006800F492
:10133000804000900548001F016841F08051016025
:10134000006800F08050009008BD00004438024062
:10135000F0B40E4B1B680C46C3F30223C3F1070520
:10136000042D00D90425191D072901D2002300E00E
:10137000DB1E012606FA05F1491E214099409E40D8
:10138000761E16403143F0BC01F014B80CED00E0BD
:10139000064900F0070208684FF6FF03184040EACC
:1013A0000220034A10430860704700000CED00E083
:1013B0000000FA052DE9F0470E46050065D0DFF87C
:1013C0001481D8F80000F7B200F00F00B04207D245
:1013D00088F80070D8F8000000F00F00B04254D137
:1013E00028683D4C810712D5400703D5206840F49A
:1013F000E05020602878000703D5206840F4604062
:1014000020602068A96820F0F00008432060287858
:10141000C0072DD0304968680839012812D0022849
:1014200013D0032811D00968890700292DDA216813
:1014300021F0030101432160FFF762FC814641F284
:10144000883A0EE009688903EFE709688901ECE74B
:10145000FFF756FCA0EB0901514502D90320BDE876
:10146000F0872068696800F00C00B0EB810FEFD1C5
:10147000D8F80010404601F00F01B14207D90770BB
:10148000006800F00F00B04201D00120E7E72878A3
:10149000400705D52068E96820F4E0500843206043
:1014A0002878000706D52068296920F4604040EAC2
:1014B000C100206000F038F82168084AC1F3031128
:1014C000515CC8400649086006480068FFF708FFFD
:1014D0000020C4E7003C024008380240EC630008EA
:1014E0007C00002074000020044805490068096859
:1014F000044AC1F38221515CC84070477C0000203F
:1015000008380240FC63000804480549006809687F
:10151000044AC1F34231515CC84070477C0000204E
:1015200008380240FC630008224810B5006810F03B
:101530000C02214815D02149042A11D01D4C241F2A
:10154000082A0FD00C2A0CD12268236802F03F022F
:101550005B0221D52068C0F38810A0FB010120E0C8
:10156000084610BD2268236802F03F025B0205D5E1
:101570002068C0F38810A0FB010104E02168C1F3DA
:101580008811A1FB00010023FEF73AFE2168C1F398
:101590000141491C49000AE02168C1F38811A1FBFF
:1015A00000010023FEF72CFE2168C1F30271B0FB9D
:1015B000F1F010BD083802400024F40040787D01AD
:1015C0002DE9F84F04007DD0DFF878B32078ABF137
:1015D0000407C007A7F1040550D0DBF800105846F7
:1015E000C1F3810101290FD00168C1F381010229F2
:1015F00002D13968490207D40068C0F3810003288A
:1016000009D13868400206D52868800336D560685D
:101610000028D8D032E06068B0F5803F10D0B0F537
:10162000A02F286810D020F480302860286820F48B
:10163000802028606068A0B1FFF762FB06460CE0DE
:10164000286840F48030F4E740F480202860F7E711
:10165000FFF756FB801B642876D828688003F7D5EF
:101660000CE0FFF74DFB064605E000BFFFF748FB27
:10167000801B6428F0D828688003F7D42078DFF82E
:10168000C89280074FF0000A44D5DBF80010584696
:1016900011F00C0F0FD00168C1F38101022902D1B2
:1016A0003968490207D50068C0F3810003280AD1D0
:1016B0003868400207D42868800715D5E0680128FB
:1016C00000D111E03AE1E068B0B10120C9F80000B2
:1016D000FFF716FB064604E0FFF712FB801B02280B
:1016E000BAD828688007F7D52868216920F0F80063
:1016F00040EAC10028600DE0C9F800A0FFF700FB38
:10170000064604E0FFF7FCFA801B02281CD8286874
:101710008007F7D42078000727D5DFF828828B4888
:10172000616908F16C0881B101210160FFF7E8FAF5
:10173000064604E0FFF7E4FA801B022804D8D8F834
:1017400000008007F6D510E089E0C0F800A0FFF7A0
:10175000D7FA064605E000BFFFF7D2FA801B022841
:101760007DD8D8F800008007F6D42078400769D5E6
:1017700074484FF0000838300068C0000BD471483E
:101780003830016841F08051016000684FF0010875
:1017900000F0805000906E4E3068C00511D4306863
:1017A00040F480703060FFF7ABFA009006E000BFB5
:1017B000FFF7A6FA0099401A022850D83068C005F1
:1017C000F6D5604EA068683601280FD0052830682D
:1017D00010D020F001003060306820F0040030604C
:1017E000A068B8B1FFF78CFA00900FE0306840F0C5
:1017F0000100F4E740F004003060F7E7FFF780FAFB
:101800000099411A41F28830814264D830688007DB
:10181000F4D50EE0FFF774FA009007E0FFF770FAD6
:101820000099411A41F28830814254D830688007CB
:10183000F4D4B8F1000F05D042483830016821F0E7
:1018400080510160A069A8B3DBF80010C1F38101E9
:10185000022947D00228C9F860A005D000E03AE08C
:10186000FFF74EFA044639E0FFF74AFA064604E06D
:10187000FFF746FA801B02282DD828688001F7D48C
:10188000F4E907010843E168324A490802EB0141E3
:10189000A26841EA82110843217C40EA0160217D6F
:1018A00040EA017038600120C9F86000FFF728FAAB
:1018B000044606E044E000BFFFF722FA001B0228BE
:1018C00009D828688001F7D53AE000BFFFF718FA79
:1018D000001B022802D90320BDE8F88F2868800188
:1018E000F4D42DE00128F7D03868E26900F48001D3
:1018F000914223D1226A00F03F0191421ED147F666
:10190000C071626A0140B1EB821F17D1A26A4FF029
:10191000FF3300F4403103EB5202B1EB024F0DD123
:1019200094F82C2000F07061B1EB026F06D194F8AE
:10193000301000F0E040B0EB017F01D00120CBE798
:101940000020C9E70838024000004742800E4742A5
:10195000007000400000FFFF10B5401EB0F1807F16
:1019600001D3012010BD4FF0E02460610F2160170A
:1019700000F020FD0020A06107202061002010BDA4
:1019800070B5040004D094F84100002510B106E0C1
:10199000012070BD84F84050204600F023F8242038
:1019A00084F841002068C16821F40051C1602046DC
:1019B00000F018FC2068016921F490410161206861
:1019C000416921F02A0141612068C16841F4005158
:1019D000C1606564202084F8410084F8420065639A
:1019E000002070BD10B586B0044614216846FEF78D
:1019F00070FC13492068884220D1124800210268F7
:101A000042F400320260006800F4003005900D4896
:101A10001038026842F001020260006800F0010024
:101A200005900C2000900220CDE9010103200390D5
:101A30000720049069460448FFF774F806B010BD0B
:101A40000044004040380240000002402DE9F843C5
:101A5000044690F84100984616460D46202802D0CC
:101A60000220BDE8F88385B17EB1002060642120AA
:101A700084F84100FFF744F9A6848146E684A06813
:101A80002027B0F5805F02D003E00120E9E720695C
:101A900010B12E4600250EE000260CE080212046E5
:101AA00000F026FCA8B9C6B116F8010B2168486001
:101AB000E08C401EE084E08C4B464FF00002CDF8F5
:101AC00000800028EAD14FF04001204600F010FCD1
:101AD00040B184F841700320C3E735F8020BC0F32E
:101AE0000800E3E784F841700020BAE7FEE70168E8
:101AF0004A69D24352050FD46FF480624A610021D3
:101B000040F8301F202242738173026942F00402C0
:101B10000261017301207047002070472DE9F84FE2
:101B20000446006889460B9D01689846174641F4B3
:101B3000806101602068016841F480710160009556
:101B40004FF0011B0022594620460A9B00F0E4F8A2
:101B50004FF4007A40B120680068C00501D5C4F890
:101B600040A00320BDE8F88F216809F0FE0008615D
:101B70002B46284920460A9A00F016F9F0BB206847
:101B80004169806900902A4620460A9900F0A2F92E
:101B900040B1206C04283AD12068016841F40071FA
:101BA000016034E0FEB2B8F1010F09D02168380AB3
:101BB00008612A4620460A9900F08CF90028E8D1ED
:101BC000206806612A4620460A9900F083F9002819
:101BD000DFD12068016841F4807101600095002226
:101BE000594620460A9B00F097F80028B3D1216897
:101BF00009F0FF0040F00100086100E007E02B461B
:101C0000044920460A9A00F0CFF80028AAD0012003
:101C1000A8E70000020001002DE9F843044600682F
:101C20000D46DDE9089701689846164641F4807133
:101C300001604B4600224FF001112046009700F052
:101C40006BF848B120680068C00502D54FF40070F9
:101C500020640320BDE8F883216805F0FE000861D8
:101C60003B464A461549204600F09EF888B9206850
:101C70004169806900903A464946204600F02AF9B9
:101C800048B1206C042804D12068016841F4007137
:101C900001600120DEE7F5B2B8F1010F09D021683B
:101CA000300A08613A464946204600F013F90028F8
:101CB000E7D1206805610020CCE7000002000100A8
:101CC00070B516460D4604461EE02046FFF70FFF8E
:101CD00008B1012070BD681C16D0FFF711F8801BF9
:101CE000A84200D885B920684069C04340070BD599
:101CF000002044F8300F20216173A073216941F066
:101D0000200121612073E4E720684069C043400757
:101D1000DBD4002070BD00002DE9F047984617463F
:101D20000D460446C1F30746DDF820902AE000BFC7
:101D3000B8F1FF3F26D0FEF7E3FFA0EB09014145D4
:101D400002D8B8F1000F1DD12068012E16D080698D
:101D500025EA00000004000C12D00020B84211D186
:101D6000002044F8300F20216173A073216941F0F5
:101D70002001216120730120BDE8F0874069E7E779
:101D80000120EBE72068012E0AD0806925EA0000D7
:101D90000004000C06D00020B842C9D00020EBE7B8
:101DA0004069F3E70120F7E72DE9F047984616462A
:101DB0000D4604464FF000094FF0200AC1F30747D3
:101DC00023E020684069C043400515D420680168BD
:101DD00041F40071016021686FF480604861C4F8CB
:101DE000309084F83DA084F83E90216C41F00401CD
:101DF000216484F83C9021E0701C06D0FEF780FF3F
:101E0000A0EB0800B04203D816B1012F1FD021E08B
:101E10002068012F15D0806925EA00000004000C1D
:101E200018D000BF44F8309F84F80DA084F80E90BD
:101E3000216941F02001216184F80C900120BDE866
:101E4000F087406925EA00000004000CEAD1206810
:101E5000406901E02068806925EA00000004000C68
:101E6000AFD1ECE72DE9F041002590460E4604463F
:101E7000202728E04069C043C0060CD454F8301B2A
:101E80006FF01000486144F810596777A577206A11
:101E90002062257714E0FEF733FFA0EB0800B04284
:101EA00000D886B920684069C04340060BD544F885
:101EB000305F6773A573206940F0200020612573AF
:101EC0000120BDE8F08120684169C9434906D1D4A9
:101ED0000020F6E770B516460D4604461EE0204683
:101EE000FFF705FE08B1012070BD681C16D0FEF793
:101EF00007FF801BA84200D885B920684069C0430D
:101F000000060BD5002044F8300F20216173A07328
:101F1000216941F0200121612073E4E720684069D4
:101F2000C0430006DBD4002070BD000030B587B090
:101F30002E48FEF7EBFEC0200124CDE9000403206B
:101F40002B4D039069462846FEF7ECFD28494020BA
:101F500018310860802008600A20FEF725FD122055
:101F6000CDE901040420049069462846FEF7DAFD15
:101F70001E48FEF7E5FE05A802F0E2FC90BB7820C3
:101F800003F0DAF970BB782002F04EFC50BBC82099
:101F900003F092F930BB01F06DFD18BB1548044603
:101FA00002F0AAFA0546E01C02F0A6FA45EAC005CE
:101FB000A01D02F0A1FA45EA801080B201F04AFEAD
:101FC00080B940F2731001F02DFC58B9C82001F01F
:101FD0000FFE38B9012003F095F818B903F032FA72
:101FE000002800D0012007B030BD0000A80000206C
:101FF00000040240925500080D4808B5016841F000
:1020000080010160016801F080010091016841F0E8
:1020100001010160016801F001010091016841F0D6
:1020200002010160006800F00200009008BD00009D
:10203000303802400D4810B50B4901600C49416031
:1020400000214FF480428160C0E903124161816147
:10205000C1610162FEF774FE002803D0BDE81040A4
:10206000FEF79FBC10BD000000540040A8000020F7
:10207000801A06000C4810B50A4901604FF4E1319E
:102080004160002181600C22C160C0E904128161BD
:10209000C161FFF775FC002803D0BDE81040FEF7D2
:1020A00080BC10BD00440040FC000020FEE7FEE7BD
:1020B000704770473EB50524CDE900320A46014617
:1020C000029401230148FEF7FFFE3EBDA800002058
:1020D0003EB50524CDE900320A46014602940123AB
:1020E0000148FEF7F3FF3EBDA8000020FFF7D6B879
:1020F00030B593B034216846FEF7EBF814210DA8F3
:10210000FEF7E7F81D480025016841F080510160A5
:10211000006800F0805012901948016841F4404175
:1021200001600068022400F44040129001200390F6
:1021300010200490009406940820CDE90750A820B0
:10214000CDE909040B9468460C94FFF739FA08B1FD
:1021500072B6FEE70DA90F2081E831004FF4A050C0
:1021600010904FF48050119005210DA8FFF722F92F
:10217000002801D072B6FEE713B030BD40380240EF
:10218000007000400248016841F47001016070472E
:1021900088ED00E001680C3151E8002F22F49072C4
:1021A00041E80023002BF5D10168143151E8002FDC
:1021B00022F0010241E80023002BF5D1016B012937
:1021C00009D101680C3151E8002F22F0100241E8DA
:1021D0000023002BF5D1202180F84210002101635B
:1021E0007047000070B5044600680169E26821F498
:1021F0004051114301612169A068E26908436169A6
:10220000114308432168CA6849F20C639A430243A8
:10221000CA6020684169A26921F44071114341619B
:1022200031492068884202D03049884202D1FFF704
:102230006BF901E0FFF758F9E269002319216425E1
:102240003226B2F5004F626828D0A0FB0101930F3F
:102250009200FDF7D5FF0146B0FBF5F06FF01802D4
:10226000504301EB800006EB0010B0FBF5F000F0EE
:10227000F002B1FBF5F002EB0012B1FBF5F06FF0EC
:102280001803584301EB800006EB0010B0FBF5F09B
:1022900000F00F0021681044886070BDA0FB0101B0
:1022A00092185B41FDF7ACFF0146B0FBF5F002016F
:1022B000B1FBF5F06FF01803584301EB800006EB1B
:1022C000C000B0FBF5F000F0F80002EB4002B1FBFB
:1022D000F5F0584301EB800006EBC000B0FBF5F0D1
:1022E00000F00700D6E70000001001400014014094
:1022F0002DE9F843984617460D460446089E24E00B
:10230000701C22D0FEF7FCFCA0EB0800B0421AD8EB
:10231000CEB12068C168490717D5802D15D0402D52
:1023200013D00168C94309070FD40168002540682C
:1023300000902046FFF72EFF0820606484F840508C
:102340000120BDE8F8830320FBE72068006835EA38
:10235000000004D00020B842D2D00020F1E70120D4
:10236000F9E7FEE70FB4054B10B503A9044A02983C
:1023700000F0E2FD10BC5DF814FB0000ED3F00082A
:102380008000002003B401984100009850EAC12069
:1023900018BF04204A0D18BF40F0010040F2FF7240
:1023A000B2EB515F08BF40F00200012808BF0520D2
:1023B00002B070470907090E002804DB00F1E02095
:1023C00080F80014704700F00F0000F1E02080F862
:1023D000141D70470000000070B5C1482DED020BC0
:1023E0002DED0E8B82B0119D25F000449FEDBEDBDC
:1023F0009FEDBFEB84423EDBA4F140511098A1F168
:102400007F6108430FD0BC48844202DC28D1109879
:1024100030B39DED100B02B0BDEC0E8B02B0BDE8E9
:10242000704000F07BBC9DED100B53EC1D2B51EC6C
:10243000100BFEF70DF89DED100B41EC180B53EC53
:102440001E2B51EC100BFEF703F853EC182BFDF785
:1024500058FF41EC100B02B0BDEC0E8B02B070BD0A
:10246000012000F0A1FC02B0BDEC0E8B02B0BDE873
:10247000704000F069BCA1489FEDA18B844256DA00
:102480009DED100BB4F1795F0ADA51EC100BFFF7F8
:1024900079FF042808BF00F067FC9DED100BDAE718
:1024A00053EC102B51EC100BFDF7D2FF41EC190B44
:1024B00095480621B0EE490AF0EE690A784400F02A
:1024C000B1FB53EC192B51EC100BFDF7C1FF41ECA4
:1024D0001A0B8E48B0EE490AF0EE690A04217844DE
:1024E00000F0A0FB53EC192B51EC100BFDF7B0FFE3
:1024F00053EC182BFDF705FF41EC100B51EC1A0BB8
:1025000053EC102BFEF749F9CDE900019DED000BCE
:1025100053EC102B9DED100B51EC100BFDF798FFB9
:102520009DED101B53EC112BFDF7EBFED2E09DED62
:10253000100B51EC100B01F04DFD53EC182BFDF777
:1025400084FF9FED730BCDE9000153EC102B9DED43
:10255000000B51EC100BFDF77BFF41EC190B6E48A3
:102560000621B0EE490AF0EE690A784400F05AFB01
:1025700053EC192B51EC100BFDF76AFF41EC1B0BD0
:102580006648B0EE490AF0EE690A0421784400F08A
:1025900049FB53EC192B51EC100BFDF759FF53EC91
:1025A000182BFDF7AEFE41EC1C0B51EC190B02F0A1
:1025B000B9FF41EC180B5A489FED5BABA04222DCFF
:1025C00053EC1C2B51EC1B0BFEF7E7F8CDE9000197
:1025D0009DED000B51EC180B53EC102BFDF738FF61
:1025E00053EC182BFDF78DFE53EC1A2BFDF730FF43
:1025F00053EC1D2BFDF726FF53EC1E2BFDF725FF9B
:1026000041EC100B5FE08DED008B002000909DED04
:10261000000B51EC180B53EC102BFDF772FE9DEDE7
:10262000000B41EC1E0B53EC102B51EC100BFDF783
:102630000FFF53EC192BFDF708FF53EC1E2BFEF791
:10264000ACF841EC190B53EC1C2B51EC1B0BFEF7B7
:10265000A4F841EC1B0B53EC1A2B51EC190BFDF7B2
:10266000F7FE53EC1D2BFDF7F0FE41EC190B53EC7C
:102670001A2B51EC180BFDF7EBFE53EC1B2BFDF75F
:10268000E7FE53EC192BFDF7DDFE9DED000B41EC51
:10269000180B53EC1A2B51EC100BFDF7D9FE9FEDE4
:1026A000249B53EC192BFDF7D0FE41EC100B51ECA1
:1026B000180B53EC102BFDF7C5FE53EC192BFDF74F
:1026C000C4FE41EC100B002D3FF7C5AE51EC100BD2
:1026D00081F0004141EC100BBDE60000000000005D
:1026E0000000F03F00000000075C143326A6913C78
:1026F000182D4454FB21F93F0000F07F0000E03F1B
:10270000000000000000F03F483F0000563F00007E
:10271000000000000000E03F9A3E0000A83E0000DC
:102720003333EF3F000000000000000000000040D5
:10273000182D4454FB21E93F70B59B482DED020B49
:102740002DED068B079D25F00044A04218DC97482C
:10275000844202DC0AD1069840B19DED060BBDEC27
:10276000068B02B0BDE8704000F0D8BA002DCCBF97
:102770009FED8F0B9FED900BBDEC068B02B070BDF3
:102780008F48A04215DD8F48A042D8BF4FF0FF34DC
:1027900058DD9DED060B51EC100BFFF7F3FD0428FF
:1027A00008BF00F0E1FA9DED060BBDEC068B02B010
:1027B00070BD9DED060B51EC100B01F00BFCCDE94B
:1027C000060181489FED828BA0423CDD8248A042F9
:1027D0001FDD00249FED82AB9DED060B53EC1A2B01
:1027E00051EC100BFDF78DFD9DED060B41EC190B27
:1027F00053EC1A2B51EC100BFDF72AFE53EC182B5F
:10280000FDF720FE53EC192BFDF7C7FFCDE90601BC
:1028100049E09DED060B012453EC182B51EC100BF5
:10282000FDF76FFD9DED060B41EC190B53EC182BDA
:1028300051EC100BFDF706FE53EC192BFDF7ADFF25
:10284000CDE906012FE06848A0421FDD02249FED7C
:10285000689B9DED060B53EC192B51EC100BFDF70B
:10286000F7FD53EC182BFDF74CFD9DED060B41ECED
:10287000180B53EC192B51EC100BFDF7E3FD53EC47
:10288000182BFDF78AFFCDE906010CE09DED060B44
:10289000032453EC102B9FED580B51EC100BFDF75C
:1028A0007CFFCDE906019DED060B53EC102B51EC9E
:1028B000100BFDF7CDFD41EC180B53EC182BFDF779
:1028C000C7FD41EC190B4E480621B0EE490AF0EE67
:1028D000690A784400F0A6F953EC182B51EC100B60
:1028E000FDF7B6FD41EC180B4648B0EE490AF0EE94
:1028F000690A0521784400F095F953EC192B51EC45
:10290000100BFDF7A5FD41EC100B51EC180B53EC2F
:10291000102B002C0EDAFDF7F4FC9DED061B53EC9A
:10292000112BFDF795FD9DED061B53EC112BFDF7CB
:102930008CFD35E0FDF7E5FC9DED061B53EC112BFE
:10294000FDF786FD41EC100B2F48784400EBC400E6
:1029500090ED001B51EC100B53EC112BFDF772FDA9
:102960009DED061B53EC112BFDF76CFD41EC100B9C
:102970002648784400EBC40090ED001B51EC100B8E
:1029800053EC112BFDF761FD41EC100B002DA2BFA4
:10299000BDEC068B02B070BD51EC100B81F0004114
:1029A00041EC100B01E70000000010440000F07F34
:1029B000182D4454FB21F93F182D4454FB21F9BF35
:1029C0000000DC3F0000203E0000F33F000000005C
:1029D000000000000000F03F0000E63F00000000A3
:1029E00000000000000000400080034000000000E4
:1029F000000000000000F83F000000000000F0BFF1
:102A0000EA3B0000A03B00002A3B0000E23A000045
:102A100070B56F4E2DED040B2DED048B82B0DDF8FB
:102A200024C0DDE907235C422CF000411C4341EA4D
:102A3000D474069D22F00040B44205D86C422C4369
:102A400040EAD474B4420BD99DED081B9DED060BF2
:102A500002B0BDEC048B04B0BDE8704000F068B972
:102A6000ACF14054A4F17F641C430BD0022404EA6F
:102A7000AC7444EAD27405439FED578B9FED582BFD
:102A800007D015E09DED060B51EC100B00F0A4FEF5
:102A900042E0002C11BF012C9DED060B02B0BDECF5
:102AA000048B04BF04B070BD022C38D0032C3BD083
:102AB0000B439FED4D1B9FED4E0B0AD0B14218D139
:102AC000B04209D121F0804120F080400991079067
:102AD0000FE0002A15DA10E0474B7B44002C08BFBA
:102AE00093ED000B0DD0012C10D0022C17D0032C2D
:102AF0001AD0B0421DD1002A03DAB0EE410AF0EE3E
:102B0000610A02B0BDEC048B04B070BD93ED000B04
:102B100051EC100B81F0004141EC100BF1E7B0EEED
:102B2000480AF0EE680AECE7B0EE420AF0EE620AFC
:102B3000E7E7401A00159FED329B3C28C8BF8DED9A
:102B4000000B17DCBCF1000FBCBF10F13C0F8DED8A
:102B5000009B0FDB9DED080B53EC102B9DED060B3E
:102B600051EC100BFDF719FE01F034FA00F034FEC1
:102B7000CDE90001B4B1012C10D0022C9FED220B45
:102B800053EC102B9DED000B51EC100B19D0FDF701
:102B900059FC53EC182BFDF755FCBDE7019880F06C
:102BA000004001909DED000B53EC192B51EC100BE4
:102BB000FDF77AFE04BF022000F0F6F89DED000B51
:102BC0009FE7FDF73FFC53EC182BFDF73EFCA3E716
:102BD0000000F07F00000000182D4454FB21094044
:102BE000182D4454FB2109C0182D4454FB21F9BF72
:102BF000182D4454FB21F93F123A00000000000058
:102C00000000000000000000075C143326A6A13C71
:102C10002DED020B019820F0004001909DED000B7E
:102C200002B0704770B504462DED028B4D1E00EBCF
:102C3000C500B0EE408AF0EE608A90ED000B35F0F2
:102C4000060017D053EC182B51EC100BFDF700FCCD
:102C500041EC100B6D1E04EBC50090ED001B51EC18
:102C6000100B53EC112BFDF74CFB41EC100B35F026
:102C70000600E7D1022D36D0042D1CD0062D1CBF36
:102C8000BDEC028B70BD53EC182B51EC100BFDF713
:102C9000DFFB94ED0A1B53EC112BFDF732FB53ECD9
:102CA000182BFDF7D5FB94ED081B53EC112BFDF70A
:102CB00028FB41EC100B53EC182B51EC100BFDF7DB
:102CC000C7FB94ED061B53EC112BFDF71AFB53ECDD
:102CD000182BFDF7BDFB94ED040B53EC102BFDF707
:102CE00010FB41EC100B53EC182B51EC100BFDF7C3
:102CF000AFFB94ED021B53EC112BFDF702FB53ECE1
:102D0000182BFDF7A5FB94ED001B53EC112BFDF7E1
:102D1000F8FABDEC028B41EC100B70BD10B553EC12
:102D2000102B51EC100BFDF7ECFA41EC100B10BD21
:102D300010B553EC112B51EC100BFDF7E2FA41ECFE
:102D4000100B10BD000000009FED050B10B553ECFB
:102D5000102B51EC100BFDF720FD41EC100B10BDBA
:102D600000000000000000009FED050B10B553ECC3
:102D7000102B51EC100BFDF76BFB41EC100B10BD51
:102D8000000000000000001002E008C8121F08C187
:102D9000002AFAD170477047002001E001C1121FDC
:102DA000002AFBD17047000001490860704700000D
:102DB000840000202DE9FF5F82B00021DDE90430AE
:102DC000020DDDF840B0034318D044F61050A2F2D3
:102DD000FF3242431514119801281FD0A5EB0B00B8
:102DE000401C5FEA000A4FF000064E4FDFF83891B2
:102DF000B046504615D5CAF1000413E011980124DD
:102E00004AA3012801D16FEA0B010298119AC0E987
:102E10000031C0E9024206B0BDE8F09FCBF10000EE
:102E2000DFE704460021404A491842EB0450CDE94F
:102E3000001012E0E00707D032463B4640464946C4
:102E4000FDF706FB8046894632463B46104619464A
:102E5000FDF7FEFA06460F466410002CEAD1DDE9C4
:102E60000401DDE90023BAF1000F06DAFDF7F0FAFC
:102E700042464B46FDF7ECFA05E0FDF78EFC424674
:102E80004B46FDF78AFC04460E460022284BFDF710
:102E900075FB03D84FF0FF30014607E00022254BB9
:102EA00020463146FDF72DFAFDF7E6FC102409E037
:102EB000002C0ADB0A220023FDF7A2F9039B303223
:102EC0001A55641E50EA0102F2D1641C039AC4F13F
:102ED00011031444119A012A03D0012208430DD191
:102EE0000AE0084304D000204FF0110B119072E764
:102EF000A3EB0B056D1E0DE05B4504DD4FF00002FA
:102F000005F1010504E003DA4FF00002A5F1010527
:102F1000002AECD002981199C0E90231C0E90045BD
:102F200079E70000000014400000F03F300000008E
:102F30000000F0430000E03F2DE9FF4F95B09A46B6
:102F4000884606460025EEE1252877D1002427464D
:102F5000F94A0121039400E0044316F8013F203BA5
:102F600001FA03F01042F7D130782A2811D06FF01F
:102F70002F033078A0F13002092A16D8039A44F0C2
:102F8000020402EB820203EB42021044761C03901F
:102F9000EFE758F8042B0392002A03DA504244F476
:102FA0000054039044F00204761C30782E2816D189
:102FB00016F8010F44F004042A280DD06FF02F02F8
:102FC0003078A0F13003092B09D807EB870302EB17
:102FD0004303C718761CF3E758F8047B761C307857
:102FE0006C280FD006DC4C2817D068280DD06A2832
:102FF00014D104E0742810D07A280FD10DE044F4E5
:1030000000140AE044F4801401E044F4401472789F
:10301000824202D104F58014761C761C3078662832
:103020000BD013DC582877D009DC002875D0452850
:10303000F6D04628F4D047281AD193E118E0632847
:1030400035D0642879D0652812D18BE1702873D0EF
:1030500008DC6728F1D069286FD06E280DD06F2862
:1030600006D1ACE073282CD0752874D0782853D0C2
:103070005246179990476D1C54E1C4F30250022840
:1030800009D003280DD0D8F8001004280DD00D6009
:1030900008F1040846E1D8F80010EA17C1E9005227
:1030A000F6E7D8F800100D80F2E70D70F0E718F899
:1030B000041B8DF8001000208DF80100EB46012064
:1030C00003E058F804BB4FF0FF3061074FF00001F8
:1030D00002D40DE009F101018946B9420FDA8145B8
:1030E000F8DB1BF809100029F4D108E009F101010F
:1030F00089468142FADB1BF809100029F6D10398B2
:103100005346A0EB090721463846179A00F080FA8B
:10311000284400EB090507E044E008E10DE01BF856
:10312000010B524617999047B9F10109F7D253465E
:1031300021463846179AF2E039E00A21C4F30252D8
:103140004FF0000B0091022A06D058F8040BC1176B
:10315000032A09D00AE023E008F1070020F0070263
:10316000F2E80201904605E000B2C117042A01D13D
:1031700040B2C117002906DA0A460021404261EB3D
:1031800002012D2202E0220504D52B228DF8042015
:10319000012203E0E20701D02022F7E7914657E041
:1031A0000A2100E010214FF0000B00910BE01021EC
:1031B0004FF0000B44F004040827009103E00820BE
:1031C0004FF0000B0090C4F30252022A05D058F8C9
:1031D000040B0021032A08D008E008F1070020F0C2
:1031E0000702F2E80201904603E080B2042A00D10F
:1031F000C0B24FF0000922072AD53278702A07D0D2
:10320000DDF800C08CF0100C5CEA0B0C05D00EE071
:1032100040228DF80420012208E050EA010306D084
:1032200030238DF804308DF8052002229146009B52
:1032300083F0080353EA0B030AD150EA010201D1DB
:10324000620705D530228DF804204FF001097F1E5A
:103250003278582A04D039A20C920CAA02920BE0C0
:103260003BA2F9E75B46009AFCF7CAFF0C9B9B5C0C
:10327000029A521E0292137050EA0102F2D1029891
:1032800004A9081A00F1200B600702D524F4803449
:1032900000E001275F4502DDA7EB0B0000E0002006
:1032A00000EB0B01009003984944401A0390E0039F
:1032B00006D453462146179A039800F0A9F905440D
:1032C000002706E001A85246C05D179990476D1C83
:1032D0007F1C4F45F6DBE0030CD553462146179A79
:1032E000039800F095F9054404E030205246179900
:1032F00090476D1C0099481E00900029F5DC08E0FD
:103300000298029952460078491C029117999047F9
:103310006D1CBBF10001ABF1010BF1DC5BE100F0D6
:1033200065F90544761C307800287FF40DAE19B09D
:103330002846BDE8F08F0000092801003031323303
:1033400034353637383961626364656600000000E1
:1033500030313233343536373839414243444546CB
:1033600000000000600700D4062708F1070020F0E5
:103370000700F0E80223804603F0004C5FEA0C00EF
:1033800001D097A009E0200501D596A005E0E0074F
:1033900001D095A001E0AFF24C001390307823F0FB
:1033A000004365280CD006DC452809D046281DD0EE
:1033B00047287FD13BE0662818D067287AD136E0CD
:1033C0000021112F01DB112000E0781CCDE9000164
:1033D00004A90CA8FFF7EEFCDDE90D010C9A4FF0F3
:1033E000000B07F10109109200914EE04FF00040F0
:1033F0000097CDE9011004A90CA8FFF7DBFCDDE97B
:103400000D020C9B0F994FF0000B91461093009208
:1034100011B9791C00EB0109B7EB090003D4C0F125
:10342000FF3B07F10109A9EB0700019042E0012FE2
:1034300000DA01270021112F01DD112000E03846BC
:10344000CDE9000104A90CA8FFF7B4FCDDE90D01EA
:103450000C9A00914FF0000BB946109221070FD43F
:10346000009A4A4503DA914601E0A9F10109B9F150
:10347000010F05DD109AA9F10101515C3029F4D04A
:10348000B84202DA10F1040F03DA0121CDE901108C
:1034900010E0002803DC8344A9EB000102E0411C9A
:1034A000494500DD8946A0EB0B00401C01904FF020
:1034B00000400290200705D40198484502DB4FF0F8
:1034C000FF30019000208DF84B0002980DF14B0762
:1034D000B0F1004F25D002200C902B200D900298C7
:1034E00000280CDA404202902D200D9007E00A21BE
:1034F0000298FDF777F83031029007F8011D0C991A
:10350000481E0C900029F2DC02980028EFD1791EA9
:103510000D980870307800F0200040F0450007F862
:10352000020D11A8C01BC01D02901398007800B1B5
:10353000012000EB0901019801EBE07102980144C0
:103540000398401A401E0390E00306D453462146D8
:10355000179A039800F05CF805441398007818B1A6
:103560005246179990476D1CE00323D553462146D8
:10357000179A039800F04CF805441BE0BBF1000FCC
:1035800007DB0098584504DD1098179910F80B00D8
:1035900001E0179930205246904701980BF1010B3A
:1035A000401E05F10105019004D12E2052461799C5
:1035B00090476D1CB9F10001A9F10109DEDC05E0BD
:1035C00017F8010B5246179990476D1C0299481E37
:1035D00002900029F4DC53462146179A03989EE690
:1035E0002D0000002B000000200000002DE9F0411C
:1035F000044600251E461746880404D405E03946D3
:103600002020B0476D1C641EF9D52846BDE8F08126
:103610002DE9F041044600251E469046C80301D519
:10362000302700E02027880404D505E041463846CD
:10363000B0476D1C641EF9D52846BDE8F081000036
:103640002DE9F04306465C480F462DED048B8DB006
:1036500000244068A0460BAB007803220D21FEF742
:1036600029FD28B107200DB0BDEC048BBDE8F08327
:10367000524D00200BABDFED520A9FED521ADFEDE9
:10368000521A04AA195CA1B105EB410131F8021CE0
:1036900000EE101A02EB8001B8EE400A81ED000A3C
:1036A00020EE200A81ED000A20EE010A81ED000AD9
:1036B00005E002EB80014FF00108C1ED001A401C4B
:1036C0000328DFDB012501A9B8F1000F23D000207A
:1036D0009FED3E1ADFED3E0A57F8202056F82030C5
:1036E000D21A00EE102A01EB8002B8EEC00A82ED79
:1036F000000AB4EEC10AF1EE10FA04D3B4EEE00A07
:10370000F1EE10FA02DD05FA00F21443401C032822
:10371000E2DB7CB34DE0002008ABF7EE000A4FF08F
:103720007C5900BF57F820C056F82080ACEB080C3D
:1037300000EE10CA01EB800CB8EEC00A8CED000A56
:1037400002EB800CDCED001A03EB800C80EE211AFA
:1037500031EE600A8CED000AB0EEC00A10EE10CA1D
:10376000CC4503DD05FA00FC4CEA0404401C0328A8
:10377000D8DBCEE7FFE79FED178A002718EE100A87
:10378000FCF7E9FE41EC190B56F82700FCF7D2FED6
:1037900041EC100BFFF73CFA53EC192B51EC100BDA
:1037A000FCF7ECFE02D205FA07F004437F1C032F5E
:1037B000E4DB204657E7000000000020EC61000831
:1037C0000000804700008038000000006666664602
:1037D000CDCC2C470000004710B541EC100BFEF794
:1037E000ABFF51EC100B10BD08B560B120208DF877
:1037F000000028208DF8010030208DF802003820CC
:103800008DF8030004E0A32204216846FCF75AFD6A
:103810006A46042140F69E2001F0EAFD01F04AFAD2
:1038200008BD00003EB5044602208DF80000CA2005
:103830008DF80100E3208DF8020009208DF80300C7
:103840006A460421682001F0D3FDA3208DF8000012
:10385000610609D5C0218DF80110C8218DF802102C
:10386000C2218DF8031005E08DF801008DF80200EB
:103870008DF8030014F4C07F09D0C4218DF8041022
:10388000CC218DF80510C6218DF8061005E08DF8C5
:1038900004008DF805008DF806008DF808008DF8FD
:1038A00007008DF809006A460A2140F6A72001F0BA
:1038B0009FFDA0074FF0D80503D020208DF8000011
:1038C00001E08DF800506A46012140F6B62001F073
:1038D0008FFDA00601D5012000E0002000F08EF849
:1038E00014F4C07F1ED0E0050AD5B2208DF8000088
:1038F0008B208DF80100B6208DF802009B2009E096
:10390000B0208DF8000080208DF80100B4208DF8E3
:10391000020090208DF803006A46042140F6A220A0
:1039200001F066FDE1074FF40B6022D0F8218DF81D
:1039300000106A46012101F05BFDFA21072000F02A
:1039400079FA072000F044FA012000F061FA6420BF
:1039500000F020FB4FF4FA7000F02CFBC821254842
:1039600000F0FEF9282000F013FA0A2000F020FAF7
:1039700005E08DF800506A46012101F039FDA007ED
:1039800003D5D9208DF8000001E08DF800506A467B
:10399000012140F23D7001F02BFD600701D50120AF
:1039A00000E0002000F048F8E00601D5012000E02A
:1039B0000020FFF719FF104D44F00800688101F066
:1039C00079F90020A873600601D50620A87314F4C5
:1039D000C07F02D0A87B801DA87314F0140F02D002
:1039E000A87B1030A873A00702D0A87B001DA87385
:1039F00000203EBD09E3CA02880000200EB54FF446
:103A0000976310B106A107C901E008A207CA8DE8B3
:103A100007006A460921184601F0EAFC0EBD0000C5
:103A2000B8AAB38DB4980D355D000000B8AAAAAA53
:103A3000B088C3C5C700000008B560B1C0208DF8CC
:103A40000000C2208DF80100C4208DF80200C620BD
:103A50008DF8030004E08B2204216846FCF732FC59
:103A60006A46042140F6982001F0C2FC01F022F9D8
:103A700008BD0000C8234FF48062024940F6F630CA
:103A800000F0C8BF9B5500082DE9FF4F89B01746CD
:103A9000DDE916520024554E884681462C80A24608
:103AA000B07B694601F094F84FF0FF3B18B15846DF
:103AB0000DB0BDE8F08F708910F0140F4ED0BDF836
:103AC00000109DF8022049BA090441EA02229DF83B
:103AD00003100A433A60BDF804109DF8063049BA55
:103AE000090441EA03219DF8073012141943796053
:103AF000BDF808309DF80A405BBA1B0443EA042372
:103B00009DF80B4009142343BB60BDF80C409DF8A1
:103B10000EC064BA240444EA0C2C9DF80F404CEA11
:103B2000040C1024C7F80CC01B144FEA2C4712FBDE
:103B300002F211FB012113FB03F217FB07221144D0
:103B4000A1F17061B1F1007F04D901F0B3F8A5F8DB
:103B500000A0ACE7298841F48071298042066946BB
:103B600011D50A19A41D13885BBAA8F80030538830
:103B70005BBAA8F80230928852BAA8F804202A88C2
:103B800042F008022A8010F4C07F11D00A19A41D47
:103B900013885BBAA9F8003053885BBAA9F80230E1
:103BA000928852BAA9F804202A8842F070022A802A
:103BB000800716D00C44E07800F0C00500F03F010B
:103BC0006078C00706D0C80801F007013268491CB8
:103BD00002B190476078000703D5716809B1A80960
:103BE00088470C9800F0C4FB002061E788000020A3
:103BF00030B5044613A285B007CA8DE807004FF020
:103C0000FF35C82C16D8C820B0FBF4F1491E080AAD
:103C10008DF80C008DF80D1003AA022140F2162039
:103C200001F0E6FB30B96A460C2140F6C12001F0F4
:103C3000DFFB10B1284605B030BD05488481002067
:103C4000F9E70000FEF2ABC4AAF1DFDFBBAFDFDFB4
:103C5000880000202DE9FF4104463CA004F0030346
:103C6000006802903AA0006803903AA006683AA063
:103C7000056802A8C15C8DF80010C4F3C101425C64
:103C80008DF80120C4F38112805C8DF8020003A836
:103C9000C35C8DF80430415C8DF80510805C8DF8B4
:103CA00006006A46032140F2264001F0A1FB4FF0D6
:103CB000FF37E0BB01AA032140F22A4001F098FB44
:103CC000A8BBCDE9006560070BD59DF8000040F06A
:103CD00001008DF800009DF8040040F001008DF80F
:103CE0000400A0060BD59DF8010040F001008DF8FE
:103CF00001009DF8050040F001008DF80500E00589
:103D00000BD59DF8020040F001008DF802009DF8EF
:103D1000060040F001008DF806006A4603214FF4CA
:103D2000886001F065FB10B901AA032100E004E0FE
:103D300040F2314001F05CFB18B1384604B0BDE8F8
:103D4000F081064804810020F8E700004CCD6C00AB
:103D50000CC92C00365676002646660088000020E6
:103D60004FF47A7290FBF2F008B54843010E8DF8DB
:103D70000010010C8DF80110010A8DF802108DF869
:103D800003006A4604214FF4AE7001F031FB08BD18
:103D90000521B0FBF1F008B5010A8DF800108DF88F
:103DA00001006A4602214FF4AD7001F021FB08BD0D
:103DB0000521B0FBF1F008B5010A8DF800108DF86F
:103DC00001006A4602214FF4AC7001F011FB08BDFE
:103DD00008B500218DF80010C10702D030218DF800
:103DE0000010810705D59DF8001041F00C018DF8F9
:103DF0000010400705D59DF8000040F003008DF845
:103E000000006A4601214FF4A47001F0F1FA08BDE8
:103E100008B560B1042800D90420401E8DF80000C8
:103E20006A46012140F24F1001F0E2FA08BD01207C
:103E3000F3E7000070B504462DED028B82B0400719
:103E40004FF0FF357ED0B1F5C86F7BD800EE101A69
:103E5000B8EE400ADFED460A01A880EE208A00F0A5
:103E60000DFD9DF80400022806D0042810D0082873
:103E700035D0102874D13EE09FED3E0A28EE000AAE
:103E8000BCEEC00A10EE100A9FED3B0A82B20AE0B7
:103E90009FED3A0A28EE000ABCEEC00A10EE100AA6
:103EA0009FED370A82B228EE000A6E46BCEEC00AC9
:103EB00010EE100A81B2100A8DF800008DF8012072
:103EC000080A8DF802008DF80310E00726D032466C
:103ED00002214FF4EA7001F08BFA98BB17E09FEDD6
:103EE000290A28EE000ABCEEC00A10EE100A9FED67
:103EF000260A82B2D7E79FED250A28EE000ABCEE1B
:103F0000C00A10EE100A9FED220A82B2CBE7B21C63
:103F100002214FF4927001F06BFA98B9A0070DD509
:103F20006A4602214FF4EC7001F062FA50B9B21CFB
:103F300002214FF4947001F05BFA18B9600714D5B0
:103F40006A4600E00CE002214FF4EE7001F050FAF6
:103F500030B9B21C02214FF4967001F049FA20B139
:103F6000284602B0BDEC028B70BD0020F9E70000CE
:103F70000000484300008046000040460000004624
:103F80000000C0450000804500004045000000459D
:103F90000000C0440521B0FBF1F008B5010A8DF81E
:103FA00000108DF801006A4602214FF4EF7001F015
:103FB0001FFA08BD0521B0FBF1F008B5010A8DF824
:103FC00000108DF801006A4602214FF4ED7001F0F7
:103FD0000FFA08BD82B0CDE9000121F00040019048
:103FE0009DED000B02B051EC100B704713B54FF470
:103FF0007A73012269460248FDF728FD00981CBD2E
:10400000FC0000202DE9F04FADF5017D06460120B2
:10401000D64F00248DF800008DF8014038680D4619
:104020009146417D7868A0466B4600780222FEF7F3
:104030004FF800287DD1C82000F0F0FB8DF80080FB
:1040400038686B460122417C78680078FEF740F8BA
:104050000028EFD138686B460122417978680078F2
:10406000FEF736F80028E5D138686B460122417D1D
:1040700078680078FEF72CF80028DBD138686B46AA
:104080000122817E78680078FEF722F80028D1D1DD
:1040900038686B460122017978680078FEF718F8D5
:1040A0000028C7D10C208DF8000038686B4601222B
:1040B000017978680078FEF70BF80028BAD10F2054
:1040C00000F0ACFBB86A6B460122407A8DF8000024
:1040D0003868817878680078FDF7FAFF0028A9D160
:1040E000B86A6B460122007A8DF800003868417882
:1040F00078680078FDF7ECFF00289BD1B86AB9F129
:10410000000F807A01D040F0E0008DF800003868A0
:104110006B460122817978680078FDF7D9FF002885
:1041200088D1B9F1000F08D0B86AC07A40F0E00039
:1041300000E087E08DF8000001E08DF8008038682D
:104140006B460122C17978680078FDF7C1FF00282D
:1041500078D1C82000F062FB40208DF8000038685C
:104160006B460122017978680078FDF7B1FF0028DD
:1041700068D178208DF8000038686B4601224179BB
:1041800078680078FDF7A4FF00285BD1C6F80880A6
:10419000C6F80480C6F80080C5F80880C5F8048019
:1041A000C346BA46C5F800800A2000F037FBDAF8AB
:1041B0000010DAF80400D046097B00786B46022232
:1041C000FDF778FFF0BBBDF800000C2140BAB0FB52
:1041D000F1F0C7B2C4F1C800B84200DAC7B207EBC9
:1041E00047008006020ED8F80010D8F804006B468D
:1041F000497B0078FDF75EFF20BB0021084635E0D3
:104200000DEB0102D5F80080B2F802C013889CFAC9
:104210009CFC5BBA0FFA8CF91BB2B2F804C04344A1
:104220002B606B689CFA9CFC4B446B60AB680FFA8C
:104230008CFC6344AB60D3885BBA0FFA83FC1389B0
:104240005BBA00E024E0D6F800805289C444C6F886
:1042500000C0D6F804C01BB26344736052BAB3689E
:1042600012B2401C1A44C0B20C31B260B842C7D37B
:104270003C44C82C98DB8DF800B0DAF80010DAF86E
:1042800004006B46497900780122FDF721FF28B12F
:104290004FF0FF300DF5017DBDE8F08F30688322CF
:1042A000C117090441EA104100040023FBF7D9FFBC
:1042B000E71722463B46FBF7D4FF30607068832245
:1042C000C117090441EA104100040023FBF7C9FFAC
:1042D00022463B46FBF7C5FF7060B0688322C117DA
:1042E000090441EA104100040023FBF7BAFF22460B
:1042F0003B46FBF7B6FFB06028684FF48046C11715
:10430000090441EA1041000432460023FBF7A9FFEB
:1043100022463B46FBF7A5FF286068683246C11776
:10432000090441EA104100040023FBF79AFF2246EA
:104330003B46FBF796FF6860A8683246C117090440
:1043400041EA104100040023FBF78BFF22463B4665
:10435000FBF787FFA860002802DDA0F5803001E0B0
:1043600000F58030A860002094E7000000000020E5
:1043700010B50446FCF7C4FC2060002010BD00000E
:104380002DE9F0430546554800242DED048B8DB0F2
:104390000E46406827460BAB007803222146FDF706
:1043A00089FE28B107200DB0BDEC048BBDE8F08379
:1043B000DFF82CC100200BAADFED4A0A9FED4A1A54
:1043C000DFED4A1A04AB115CA1B10CEB410131F8ED
:1043D000021C00EE101A03EB8001B8EE400A81EDDA
:1043E000000A20EE200A81ED000A80EE012A81ED0C
:1043F000002A04E003EB80010127C1ED001A401CF4
:104400000328E0DB01AA0121E7B19FED390A002072
:1044100056F8203055F82070DB1B00EE903A02EB86
:104420008003F8EEE00AC3ED000AF4EEC00AF1EEF4
:1044300010FA02D201FA00F31C43401C0328E7DB08
:1044400054B348E0002008AF4FF07C5956F820C024
:1044500055F82080ACEB080C00EE10CA02EB800C83
:10446000F8EEC00ACCED000A03EB800C9CED001ABC
:1044700007EB800C80EE810A8CED000AB0EEC00ADA
:1044800010EE10CACC4503DA01FA00FC4CEA040431
:10449000401C0328DADBD3E79FED169A00260F466F
:1044A00019EE100AFCF757F841EC180B55F82600E6
:1044B000FCF740F841EC100BFEF7AAFB53EC182B6D
:1044C00051EC100BFCF75AF802D207FA06F004433D
:1044D000761C032EE4DB204665E700000000002088
:1044E000EC6100080000804700000343000000006A
:1044F0000000704A0000A04990F90010002902DD78
:104500004FF00000704702DA4FF00400704790F956
:104510000110002902DD4FF00100704702DA4FF070
:104520000500704790F90200002802DD4FF00200FC
:10453000704702DA4FF0060070474FF007007047EF
:104540002DED108B84B0FCF7B1FEFDF7D1FDFDF72A
:1045500053FDFDF76FFDFDF78DFDA04CFDF7E6FC6B
:104560000028FBD1DFF8749209F1020A9B4BCDE9D8
:1045700000A9103303F10A01994A881FFFF784FA52
:104580006088C005F2D5964D2868FBF7D3FF9FEDF4
:10459000958B53EC182BFBF75BFF41EC1A0B84ED6A
:1045A00008AB6868FBF7C6FF53EC182BFBF750FF0E
:1045B00041EC190B84ED0A9BA868FBF7BBFF53EC99
:1045C000182BFBF745FF41EC1B0B84ED0CBBE86897
:1045D000FBF7B0FF53EC182BFBF73AFF41EC1C0B39
:1045E00084ED0ECB9FED818B51EC1A0B53EC182B05
:1045F000FBF72EFF53EC1B2BFBF72AFF41EC1B0BA9
:104600009FED7CAB51EC190B53EC1A2BFBF720FF01
:1046100053EC1C2BFBF71CFF53EC1B2BFBF771FE21
:1046200041EC100BFDF7D8FE9FED749B51EC100B85
:1046300053EC192BFBF70CFFFBF7B8FF606094ED10
:104640000CBB53EC182B51EC1B0BFBF701FF0E4678
:1046500046EC100B054653EC1B2B51EC100BFBF7F3
:10466000F7FE53EC1A2B94ED0AAB41EC1B0B51EC0B
:104670001A0BFBF7EDFE53EC1A2BFBF7E9FE53EC9C
:104680001B2BFBF7DFFE9FED5F1B53EC112BFBF7A2
:1046900038FE94ED080B41EC1B0B53EC182B51EC3E
:1046A000100BFBF7D5FE53EC1A2BFBF7D1FE46ECB3
:1046B000105B94ED0E1B41EC1A0B53EC112B51ECDB
:1046C000100BFBF7C5FE53EC1A2BFBF71AFE41EC5F
:1046D000100BB0EE4B1AF0EE6B1AFEF799F953EC93
:1046E000192B51EC100BFBF7B3FEFBF75FFFA0603B
:1046F00094ED0EDB53EC1D2B51EC1D0BFBF7A8FECC
:1047000041EC110B8DED001B94ED0CCB53EC1C2BED
:1047100051EC1C0BFBF79CFE94ED0ABB41EC1F0B0C
:1047200053EC1B2B51EC1B0BFBF792FE94ED08ABEB
:1047300041EC1E0B53EC1A2B51EC1A0BFBF788FEC5
:1047400053EC1E2BFBF7DDFD53EC1F2BFBF77AFE22
:104750009DED001B53EC112BFBF774FE41EC1E0B7F
:1047600053EC1D2B51EC1A0BFBF772FE41EC1A0BAC
:1047700053EC1C2B51EC1B0BFBF76AFE53EC1A2B72
:10478000FBF7BFFD53EC182BFBF762FE41EC100B5F
:10479000B0EE4E1AF0EE6E1AFEF73AF953EC192B02
:1047A00051EC100BFBF754FEFBF700FFE060FBF74A
:1047B000D2FE074688466068FBF7CDFE05460E46EA
:1047C000A068FBF7C8FE8DE8E00141EC100B0FA0DC
:1047D00053EC102BFDF7C6FDC8E6000030000020AA
:1047E00098000020000000000000103E00000000C3
:1047F0000000004000000000000000C0F8C1631A83
:10480000DCA54C40000000000000F03F252E326681
:104810002C252E32662C252E32660A0011B4009803
:1048200018BCFCF7C1B800002DE9F041124C20F093
:104830000101002594F8240010B10020BDE8F081AA
:10484000A07A4FF0FF3668B10840277C2074884278
:1048500000D0354641B1012000F038FE00F02AFAC0
:1048600038B127743046E9E7207D00B1012000F01F
:104870002DFE2846E2E70000000000200D494A7A9C
:1048800042B1012A08D0022A0FD0032A0FD04FF0DC
:10489000FF307047022200E004220270C97C11B18F
:1048A0001106C90D0170002070470822F5E710229B
:1048B000F3E70000000000200B49097A39B1012913
:1048C00007D002290AD003290BD0002103E0FA21E6
:1048D00001E04FF4FA710180002070474FF47A71C3
:1048E000F9E74FF4FA61F6E7000000200C49C97AB5
:1048F000072913D2DFE801F01204060A0C0E10009B
:10490000BC2100E062210180002070472A21FAE7E3
:104910001421F8E70A21F6E70521F4E70021F2E780
:1049200000000020054991F8242012B14FF0FF301B
:104930007047C989018000207047000000000020F6
:104940007CB5334C80208DF8000020686B46012236
:10495000417D60680078FDF7BBFB4FF0FF36002813
:104960004ED16420FFF75AFF00258DF800502068D3
:104970006B460122417D60680078FDF7A9FBE8BB2A
:10498000E57448208DF8000020686B460122017A0A
:1049900060680078FDF79CFB80BBFF2004F80A0FDD
:1049A000310C04F8020C04F8010C6070A180A071B5
:1049B00020720120A07020766576E572A572E56010
:1049C00025616561A576E576A5834FF4FA6000F070
:1049D000D5FB98B9022000F0F3FA78B92A2000F04C
:1049E00035FC58B9322000F067FC38B90020FFF7D9
:1049F0001BFF18B9002000F017FB00E000E008B131
:104A000030467CBD002000F097FC00207CBD0000FB
:104A1000000000202DE9FF4FDFF89480064685B0A6
:104A200098F8250015460F464FF0FF39B0BBAFB3DD
:104A3000002420E0301B102800DD102080B28346C7
:104A40003A1901469246204600F0D2FC30BB6A4635
:104A50005946204600F004F900BB50465A466946C4
:104A6000FBF742FC20B16FF0010009B0BDE8F08F08
:104A700004EB0B0084B2B442DCD3280A8DF810009A
:104A80008DF81150D8F80000444604AB417FD8F8A7
:104A9000040002220078FDF71BFB08B14846E4E75A
:104AA000012084F825000898E0840020DDE700005C
:104AB000000000202DE9F84305464FF0FF38282874
:104AC00045D80727284C002655B1012000F08CFB63
:104AD000012D17D0022D17D0052D17D804201CE06A
:104AE000002000F081FB8DF800608DF801702068D7
:104AF0006B460222417D60680078FDF7E9FA30BB21
:104B000026752FE0022008E0032006E00A2D01D8D8
:104B1000052002E0142D03D806208DF8000001E0E6
:104B20008DF8007020686B460122417A6068007839
:104B3000FDF7CEFA58B920208DF8000020686B46AA
:104B40000122417D60680078FDF7C2FA10B140464D
:104B5000BDE8F8830820A07226730120207500208C
:104B6000FFF762FE0020F3E7000000202DE9FC4182
:104B7000164D04466B466868022277210078FDF7DF
:104B800099FA4FF0FF3780B968686E4602220078C4
:104B90007A21B31CFDF78EFA38B96868331D0222FA
:104BA00000787D21FDF786FA10B13846BDE8FC811A
:104BB000BDF8000040BA2060BDF8020040BA606055
:104BC000BDF8040040BAA0600020EFE7000000201C
:104BD0002DE9F843214C0646174694F824008946EF
:104BE0004FF0FF3890B3A07A80B320686B46022262
:104BF000017B60680078FDF75DFA38BBBDF8000006
:104C000045BAB54202D2002038701FE06068418882
:104C1000B5EB510F11D9216800786B46C97C012290
:104C2000FDF748FA90B99DF80000C00605D500F0E0
:104C300041F86FF00100BDE8F8832068F2B24B46FE
:104C4000417B60680078FDF735FA08B14046F2E72D
:104C5000B5FBF6F0401E38700020ECE700000020A5
:104C6000F8B516000D464FF0FF371FD0104CA17A53
:104C7000E1B1010A8DF80010C0B28DF801004119B0
:104C800060684289914211D8216800786B46C97EDC
:104C90000222FDF71DFA48B92068EAB23346017EC8
:104CA00060680078FDF706FA002800D03846F8BDA5
:104CB00000000020F8B5564C4FF0FF36A07A0028CF
:104CC0007DD000258DF8005020686B460122417C84
:104CD00060680078FDF7FCF9002870D120686B4609
:104CE0000122417960680078FDF7F2F9002866D169
:104CF00020686B460122017960680078FDF7E8F9C9
:104D000000285CD194F82400E0B30C208DF800005A
:104D100020686B460122017960680078FDF7D8F9B8
:104D2000002872D13220FFF779FDC0208DF80000F5
:104D3000A07AC00702D0E0208DF8000020686B4602
:104D40000122017960680078FDF7C2F900285CD182
:104D5000607C18B102208DF8000001E08DF8005051
:104D600020686B460122417C60680078FDF7B0F94D
:104D700028BB8DF8005020686B460122417960689D
:104D800000783EE0FFE704208DF8000020686B46C5
:104D90000122017960680078FDF79AF978B9A07C62
:104DA00090B9A07AC0070FD05FF060008DF80000C6
:104DB00020686B46012201796068007800E024E0F9
:104DC000FDF786F908BB01E04020EFE73220FFF74E
:104DD00025FD607C18B101208DF8000001E08DF800
:104DE000005020686B460122417C60680078FDF726
:104DF0006FF950B92068064B012241796068103381
:104E00000078FDF765F9002800D03046F8BD0000B5
:104E1000000000202DE9F04F3C4C83468BB094F805
:104E200024009246894620B1002000F06BF901264B
:104E300000E0002607A8FFF73FFD06A8FFF71EFDCC
:104E400009A8FFF753FD08A8FFF76CFD94F80A8046
:104E5000277C00255346002249465846FFF7D2F8E2
:104E600010B16D1C022DF5DB022D1DD0002553461F
:104E7000012203A96846FFF7C5F810B16D1C022D89
:104E8000F5DB022D10D0524603A94846FEF7D8FBA9
:104E9000C5B2524669465846FFF772FA10F0FF0F46
:104EA0004FF0000002D002E0002505E001200DB91E
:104EB00040F0020040F00405FF2020726072E072B2
:104EC0004FF6FF71E181A072207401202073BDF8BC
:104ED0001C0000F053F99DF8180000F071F8BDF8BF
:104EE000240000F0B3F9BDF8200000F0E5F94046D9
:104EF00000F022FA3846FFF797FC16B1012000F0C7
:104F000001F90BB02846BDE8F08F0000000000203A
:104F100070B586B004460020009001900290039086
:104F2000049002A8FFF722FE4FF0FF36E8BB21688D
:104F3000029821F00101401A02906168039821F063
:104F40000101401A0390A168049821F00101401A60
:104F500004900298194C010A8DF800108DF8010098
:104F600003986B46000A8DF8020003988DF8030041
:104F700004980222000A8DF8040004988DF80500B8
:104F8000606877210078FDF7A3F870B960686D4616
:104F9000022200787A21AB1CFDF79AF828B96068E4
:104FA0002B1D022200787D2100E003E0FDF790F840
:104FB000002800D0304606B070BD00000000002080
:104FC00038B5184C4FF0FF35A17A19B3022806D036
:104FD000042806D008280ED010281BD10DE0002090
:104FE00000E008208DF80000607A9DF80010B0EB1A
:104FF000D10F04D005E01020F4E71820F2E70020DC
:1050000038BD20686B460122C17960680078FDF7E1
:105010005FF808B1284638BD9DF80000C0086072EE
:10502000EDE7000000000020F8B5354C0546A07CF7
:10503000A84201D10020F8BD31484FF0FF366B4641
:10504000D0E900104FF001020979007835B3FDF77F
:1050500031F870BB9DF800006B4620F020008DF801
:10506000000020680122017960680078FDF730F8BF
:10507000F8B90320FFF7D2FB02208DF8000094F866
:10508000220078B382202BE020686B460122C17D8C
:1050900060680078FDF71CF858B92EE0FDF70AF8B3
:1050A00038B9A07AC0079DF8000003D040F0200076
:1050B00002E00CE020F020008DF8000020686B4634
:1050C0000122017960680078FDF702F808B13046E6
:1050D000F8BD0320FFF7A2FB94F8220000B1802066
:1050E0008DF8000094F823000028CDD09DF8000032
:1050F00040F030008DF80000C6E7A5749AE7000084
:105100000000002038B51C4C94F8241081421DD0BA
:10511000002500B394F82500D0B1002000F0D6F9A6
:105120000020FFF781FFE08C00F0C6F88DF80050FA
:1051300060686B46012200782321FCF7C9FF01203B
:1051400084F8240000F0C2F9FFF7B4FD002038BD58
:105150004FF0FF3038BD002000F0B8F9207C8DF80A
:10516000000060686B46012200782321FCF7B0FF45
:1051700084F82450E8E700000000002038B5194CFE
:105180004FF0FF35A17A31B3FA2809D0B0F5FA7F94
:1051900008D0B0F57A7F0FD0B0F5FA6F1BD10DE0D3
:1051A000002000E008208DF80000207A9DF8001013
:1051B000B0EBD10F04D005E01020F4E71820F2E79F
:1051C000002038BD20686B46012281796068007834
:1051D000FCF77EFF08B1284638BD9DF80000C008E6
:1051E0002072EDE70000002038B5174C054694F812
:1051F0002300A84201D1002038BD0DB1302000E0CD
:1052000000208DF80000A07C28B19DF8000040F03F
:1052100002008DF8000094F8220028B19DF80000EB
:1052200040F080008DF8000020686B460122C17DAF
:1052300060680078FCF74CFF10B14FF0FF3038BDCC
:1052400084F82350D7E700000000002038B5194C3F
:105250004FF0FF35A17A31B3BC2801D3012010E013
:10526000622801D302200CE02A2801D3032008E0A1
:10527000142801D3042004E00A2801D3052000E00B
:1052800006208DF80000E07A9DF80010884201D1D8
:10529000002038BD20686B46012281786068007864
:1052A000FCF716FF08B1284638BD9DF80000E072F3
:1052B000EEE7000000000020F8B51E4D04464FF058
:1052C000FF37A87A48B395F8240030BB287D4FF407
:1052D0007A7648B164B1282C03D82046FFF7EAFB60
:1052E00026E00020FFF7E6FB042C05D2042406E0AC
:1052F0000020FFF7DFFBF9E7B44200D93446B6FBE4
:10530000F4F0401E8DF8000028686B4601224178B9
:1053100068680078FCF7DCFE08B13846F8BD9DF8F7
:105320000000401CB6FBF0F0E8814008FFF78EFF5C
:105330000020F8BD00000020F8B5054610F0700F01
:105340004FF0000601D0012004E015B18DF8006097
:1053500002E040208DF80000244C6B4601222068BA
:10536000417D60680078FCF7B3FE4FF0FF3760BB0B
:105370009DF8000020F0400020738DF80060680662
:1053800002D404208DF80000A80605D49DF8000082
:1053900040F002008DF80000E80605D49DF80000FA
:1053A00040F001008DF80000280705D49DF80000AA
:1053B00040F038008DF8000020686B460122817DA6
:1053C00060680078FCF784FE10B1A6723846F8BD1C
:1053D00025B1082D02D00020FFF706FFA572267523
:1053E0003220FFF71BFA0020F8BD0000000000206B
:1053F000F8B516000D464FF0FF371FD0104CA17ABC
:10540000E1B1010A8DF80010C0B28DF80100411918
:1054100060684289914211D8216800786B46C97E44
:105420000222FCF755FE48B92068EAB23346017EF5
:1054300060680078FCF74CFE002800D03846F8BDC4
:105440000000002010B586B00022694603A8FFF7CF
:10545000E1FC072803D04FF0FF3006B010BD9FEDF0
:10546000191ADFED190A002003A96A4651F8203005
:1054700000EE103AB8EEC00A20EE010ABDEEC00AF6
:1054800010EE103A41F8203052F820401B1400EE84
:10549000104AB8EEC00A20EE200ABDEEC00A10EE97
:1054A000104A42F82040241442F8204041F82030AD
:1054B000401CC0B20328D9D31046FFF729FD0020B5
:1054C000CBE700003333034200000045F8B5144C2D
:1054D0000146224694F82460D2E9000200235D1EB2
:1054E00056B179B1022111E0417C10786B4601225E
:1054F000FCF7EEFD68B90EE0A67A56B111B1617CF9
:1055000061B902E08DF80030EEE701218DF800105E
:10551000EAE72846F8BD9DF8000060740020F8BD59
:105520000000002000B52DED048B83B041EC190B79
:10553000FBF7E4F941EC180B18EE100A18EE901A7C
:105540008DED008B002818BF0120084320F000409B
:10555000C0F17F6000F1E040C00F14D019EE101AC6
:1055600019EE900A8DED009B002918BF0121084318
:1055700020F00040C0F17F6000F1E040C00F04BFA8
:105580000120FDF711FC51EC180B03B0BDEC048BAE
:1055900000BD0100000001000000010000700000DB
:1055A000000024000000020003000000650054FF1A
:1055B000EF0000FA80000B12820001030C30C30ED2
:1055C0008C8CE914D5400213710F8E3883F8833028
:1055D00000F883258EF8833000F883FFFFFFFF0F6C
:1055E000FEA9D6240004001A8279A10000003CFF25
:1055F000FF00000010000038836FA2003E0330401F
:1056000000000002CAE3093E800000200000000004
:105610000000004000000060000000000C000000DE
:105620000C186E000006920A16C0DFFFFF0256FD3E
:105630008CD377FFE1C496E0C5BEAA00000000FF4E
:10564000FF0B2B000016570000035940000000001C
:10565000001DFA00026C1D000000003FFFDFEB00A0
:105660003EB3B6000D227800002F3C000000000081
:105670001942B5000039A20000B365D90E9FC91DBB
:10568000CF4C3430000000500000003BB67AE800F8
:1056900064000000C80000000000001000000010BE
:1056A00000FA921000225E000D229F00010000000F
:1056B000320000FF46000063D40000100000000428
:1056C000D6000004CC000004CC00000000107200E2
:1056D0000000400000000000000000000600020082
:1056E000050007000000000064000000000000004A
:1056F000000005000500640020000000000000001C
:10570000000000000040000000030000000032F82C
:10571000980000FF650000830F0000FF9BFC000065
:105720000000000000000000000000000000000079
:105730000000000000000000000000000000000069
:105740000000000000000000001000400000000009
:105750000000060000B26A000200000001FB8300A6
:1057600068000000D9FC007CF1FF8300000000000D
:10577000650000006403E8006400280000002500C4
:1057800000000016A0000000001000000010000043
:105790002F0000000001F40000100000280000FFAE
:1057A000FF4581FFFFFA72000000000000000000CA
:1057B0004400050005BAC6004778A20000000100B9
:1057C00000000000000600000000140000254D004D
:1057D0002F706D000005AE000C02D000000000002C
:1057E0000000000000000000000000001B0000009E
:1057F0000000000000000000000000006400000045
:105800000800000000000000000000000000000090
:105810000000000000000000000000000000000088
:105820000000000000000000000000000000000078
:105830000000000000000000000000000000000068
:105840000000000000000000000000000000000058
:105850000000000000000000000000001B0000002D
:1058600000000000000000000E000E00000AC7004B
:1058700004000000000032FFFFFF9C00000B2B0023
:105880000000020000000100000064FFE5000000CD
:105890000000000000000000000000000000010007
:1058A0000000000001000000000000000180000076
:1058B00001800000018000002426D30000000000C9
:1058C000000000000600100096003C0000000000F0
:1058D00000000000000000000000000C0A4E68CD2F
:1058E000CF770950166759C619CE82000000000014
:1058F00000000000000000000000000000000000A8
:1059000000000017D7840003000000000000000022
:10591000000000C7938F9D1E1B1C19000000000093
:105920000000000000000000000000000000000077
:105930000000000203188500004000000000030082
:105940000000030000000000000000400000000014
:105950000000000000000000000000000000000047
:105960000000000000000000000000000000000037
:1059700000000000000000000000000000000067C0
:105980007DDF7E72902E554CF6E688000000000008
:105990000000000000000000000000D8DCB4B8B037
:1059A000D8B9ABF3F8FAB3B7BB8E9EAEF132F51BA4
:1059B000F1B4B8B08097F1A9DFDFDFAADFDFDFF253
:1059C000AAC5CDC7A90CC92C97F1A989264666B2EC
:1059D0008999A92D557DB0B08AA896365676F1BA28
:1059E000A3B4B280C0B8A89711B28398BAA3F02428
:1059F0000844106418B2B9B49883F1A329557DBA4C
:105A0000B5B1A38393F0002850F5B2B6AA839328CA
:105A1000547CF1B9A3829361BAA2DADEDFDB819A0A
:105A2000B9AEF5606870F1DABAA2DFD9BAA2FAB9F4
:105A3000A38292DB31BAA2D9BAA2F8DF85A4D0C181
:105A4000BBAD83C2C5C7B8A2DFDFDFBAA0DFDFDF2F
:105A5000D8D8F1B8AAB38DB4980D355DB2B6BAAF47
:105A60008C96198F9FA70E161EB49AB8AA872C542D
:105A70007CBAA4B08AB691325676B28494A4C8088F
:105A8000CDD8B8B4B0F19982A82D557D98A80E163E
:105A90001EA22C547C92A4F02C5078F184A898C4B7
:105AA000CDFCD80DDBA8FC2DF3D9BAA6F8DABAA63E
:105AB000DED8BAB2B68696A6D0F3C841DAA6C8F840
:105AC000D8B0B4B882A892F52C548898F135D9F49E
:105AD00018D8F1A2D0F8F9A884D9C7DFF8F883C59F
